{
  "_format": "hh-sol-artifact-1",
  "contractName": "OrderBook",
  "sourceName": "contracts/OrderBook.sol",
  "abi": [
    {
      "inputs": [],
      "stateMutability": "nonpayable",
      "type": "constructor"
    },
    {
      "inputs": [
        {
          "internalType": "address",
          "name": "target",
          "type": "address"
        }
      ],
      "name": "AddressEmptyCode",
      "type": "error"
    },
    {
      "inputs": [
        {
          "internalType": "address",
          "name": "account",
          "type": "address"
        }
      ],
      "name": "AddressInsufficientBalance",
      "type": "error"
    },
    {
      "inputs": [],
      "name": "FailedInnerCall",
      "type": "error"
    },
    {
      "inputs": [],
      "name": "ReentrancyGuardReentrantCall",
      "type": "error"
    },
    {
      "inputs": [
        {
          "internalType": "address",
          "name": "token",
          "type": "address"
        }
      ],
      "name": "SafeERC20FailedOperation",
      "type": "error"
    },
    {
      "anonymous": false,
      "inputs": [
        {
          "indexed": true,
          "internalType": "uint256",
          "name": "orderId",
          "type": "uint256"
        },
        {
          "indexed": true,
          "internalType": "address",
          "name": "maker",
          "type": "address"
        }
      ],
      "name": "OrderCancelled",
      "type": "event"
    },
    {
      "anonymous": false,
      "inputs": [
        {
          "indexed": true,
          "internalType": "uint256",
          "name": "orderId",
          "type": "uint256"
        },
        {
          "indexed": true,
          "internalType": "address",
          "name": "maker",
          "type": "address"
        },
        {
          "indexed": false,
          "internalType": "address",
          "name": "tokenA",
          "type": "address"
        },
        {
          "indexed": false,
          "internalType": "address",
          "name": "tokenB",
          "type": "address"
        },
        {
          "indexed": false,
          "internalType": "uint256",
          "name": "amountA",
          "type": "uint256"
        },
        {
          "indexed": false,
          "internalType": "uint256",
          "name": "amountB",
          "type": "uint256"
        },
        {
          "indexed": false,
          "internalType": "uint256",
          "name": "expiry",
          "type": "uint256"
        },
        {
          "indexed": false,
          "internalType": "enum OrderBook.OrderType",
          "name": "orderType",
          "type": "uint8"
        }
      ],
      "name": "OrderCreated",
      "type": "event"
    },
    {
      "anonymous": false,
      "inputs": [
        {
          "indexed": true,
          "internalType": "uint256",
          "name": "orderId",
          "type": "uint256"
        },
        {
          "indexed": true,
          "internalType": "address",
          "name": "filler",
          "type": "address"
        },
        {
          "indexed": false,
          "internalType": "uint256",
          "name": "amountFilled",
          "type": "uint256"
        },
        {
          "indexed": false,
          "internalType": "uint256",
          "name": "amountReceived",
          "type": "uint256"
        }
      ],
      "name": "OrderFilled",
      "type": "event"
    },
    {
      "inputs": [
        {
          "internalType": "contract AggregatorV3Interface",
          "name": "priceFeedA",
          "type": "address"
        },
        {
          "internalType": "contract AggregatorV3Interface",
          "name": "priceFeedB",
          "type": "address"
        },
        {
          "internalType": "uint256",
          "name": "amountA",
          "type": "uint256"
        }
      ],
      "name": "calculateFairAmount",
      "outputs": [
        {
          "internalType": "uint256",
          "name": "",
          "type": "uint256"
        }
      ],
      "stateMutability": "view",
      "type": "function"
    },
    {
      "inputs": [
        {
          "internalType": "uint256",
          "name": "orderId",
          "type": "uint256"
        }
      ],
      "name": "cancelOrder",
      "outputs": [],
      "stateMutability": "nonpayable",
      "type": "function"
    },
    {
      "inputs": [
        {
          "internalType": "address",
          "name": "tokenA",
          "type": "address"
        },
        {
          "internalType": "address",
          "name": "tokenB",
          "type": "address"
        },
        {
          "internalType": "uint256",
          "name": "amountA",
          "type": "uint256"
        },
        {
          "internalType": "uint256",
          "name": "amountB",
          "type": "uint256"
        },
        {
          "internalType": "uint256",
          "name": "expiry",
          "type": "uint256"
        },
        {
          "internalType": "enum OrderBook.OrderType",
          "name": "orderType",
          "type": "uint8"
        },
        {
          "internalType": "address",
          "name": "priceFeedAAddress",
          "type": "address"
        },
        {
          "internalType": "address",
          "name": "priceFeedBAddress",
          "type": "address"
        }
      ],
      "name": "createOrder",
      "outputs": [
        {
          "internalType": "uint256",
          "name": "",
          "type": "uint256"
        }
      ],
      "stateMutability": "nonpayable",
      "type": "function"
    },
    {
      "inputs": [
        {
          "internalType": "uint256",
          "name": "orderId",
          "type": "uint256"
        },
        {
          "internalType": "uint256",
          "name": "amountToFill",
          "type": "uint256"
        }
      ],
      "name": "fillOrder",
      "outputs": [],
      "stateMutability": "nonpayable",
      "type": "function"
    },
    {
      "inputs": [
        {
          "internalType": "uint256",
          "name": "orderId",
          "type": "uint256"
        }
      ],
      "name": "getOrderDetails",
      "outputs": [
        {
          "components": [
            {
              "internalType": "uint256",
              "name": "orderId",
              "type": "uint256"
            },
            {
              "internalType": "address",
              "name": "maker",
              "type": "address"
            },
            {
              "internalType": "contract IERC20",
              "name": "tokenA",
              "type": "address"
            },
            {
              "internalType": "contract IERC20",
              "name": "tokenB",
              "type": "address"
            },
            {
              "internalType": "uint256",
              "name": "amountA",
              "type": "uint256"
            },
            {
              "internalType": "uint256",
              "name": "amountB",
              "type": "uint256"
            },
            {
              "internalType": "uint256",
              "name": "remainingA",
              "type": "uint256"
            },
            {
              "internalType": "uint256",
              "name": "remainingB",
              "type": "uint256"
            },
            {
              "internalType": "bool",
              "name": "isActive",
              "type": "bool"
            },
            {
              "internalType": "uint256",
              "name": "expiry",
              "type": "uint256"
            },
            {
              "internalType": "enum OrderBook.OrderType",
              "name": "orderType",
              "type": "uint8"
            },
            {
              "internalType": "contract AggregatorV3Interface",
              "name": "priceFeedA",
              "type": "address"
            },
            {
              "internalType": "contract AggregatorV3Interface",
              "name": "priceFeedB",
              "type": "address"
            }
          ],
          "internalType": "struct OrderBook.Order",
          "name": "",
          "type": "tuple"
        }
      ],
      "stateMutability": "view",
      "type": "function"
    },
    {
      "inputs": [
        {
          "internalType": "address",
          "name": "user",
          "type": "address"
        }
      ],
      "name": "getUserOrders",
      "outputs": [
        {
          "internalType": "uint256[]",
          "name": "",
          "type": "uint256[]"
        }
      ],
      "stateMutability": "view",
      "type": "function"
    },
    {
      "inputs": [],
      "name": "nextOrderId",
      "outputs": [
        {
          "internalType": "uint256",
          "name": "",
          "type": "uint256"
        }
      ],
      "stateMutability": "view",
      "type": "function"
    },
    {
      "inputs": [
        {
          "internalType": "uint256",
          "name": "",
          "type": "uint256"
        }
      ],
      "name": "orders",
      "outputs": [
        {
          "internalType": "uint256",
          "name": "orderId",
          "type": "uint256"
        },
        {
          "internalType": "address",
          "name": "maker",
          "type": "address"
        },
        {
          "internalType": "contract IERC20",
          "name": "tokenA",
          "type": "address"
        },
        {
          "internalType": "contract IERC20",
          "name": "tokenB",
          "type": "address"
        },
        {
          "internalType": "uint256",
          "name": "amountA",
          "type": "uint256"
        },
        {
          "internalType": "uint256",
          "name": "amountB",
          "type": "uint256"
        },
        {
          "internalType": "uint256",
          "name": "remainingA",
          "type": "uint256"
        },
        {
          "internalType": "uint256",
          "name": "remainingB",
          "type": "uint256"
        },
        {
          "internalType": "bool",
          "name": "isActive",
          "type": "bool"
        },
        {
          "internalType": "uint256",
          "name": "expiry",
          "type": "uint256"
        },
        {
          "internalType": "enum OrderBook.OrderType",
          "name": "orderType",
          "type": "uint8"
        },
        {
          "internalType": "contract AggregatorV3Interface",
          "name": "priceFeedA",
          "type": "address"
        },
        {
          "internalType": "contract AggregatorV3Interface",
          "name": "priceFeedB",
          "type": "address"
        }
      ],
      "stateMutability": "view",
      "type": "function"
    },
    {
      "inputs": [
        {
          "internalType": "address",
          "name": "",
          "type": "address"
        },
        {
          "internalType": "uint256",
          "name": "",
          "type": "uint256"
        }
      ],
      "name": "userOrders",
      "outputs": [
        {
          "internalType": "uint256",
          "name": "",
          "type": "uint256"
        }
      ],
      "stateMutability": "view",
      "type": "function"
    }
  ],
  "bytecode": "0x6080806040523461001b5760016000556110ea90816100218239f35b600080fdfe6080604052600436101561001257600080fd5b60003560e01c806323d07835146108235780632a58b3301461080557806330dbce66146107ce578063514fcac71461067657806363c69f08146105c2578063856652e914610569578063a85c38ef14610499578063c37dfc5b146102955763ec7dd7bb1461007f57600080fd5b346102905760203660031901126102905760043560006101806040516100a481610db2565b8281528260208201528260408201528260608201528260808201528260a08201528260c08201528260e08201528261010082015282610120820152826101408201528261016082015201528060005260026020526101086040600020541515610d6f565b60005260026020526101a060406000206040519061012582610db2565b8054825260018101546001600160a01b039081166020840152600282015481166040840152600382015416606083015260048101546080830152600581015460a0830152600681015460c0830152600781015460e0830152600881015460ff90811615156101008401526009820154610120840152600a820154906101b09082166101408501610dfe565b60018060a01b039060081c16610160830152600b60018060a01b0391015416610180820152604051908051825260018060a01b03602082015116602083015260018060a01b03604082015116604083015260018060a01b0360608201511660608301526080810151608083015260a081015160a083015260c081015160c083015260e081015160e08301526101008101511515610100830152610120810151610120830152610269610140820151610140840190610cb1565b610160818101516001600160a01b0390811691840191909152610180918201511690820152f35b600080fd5b34610290576040366003190112610290576024356004356102b4610e0a565b806000526020600281526102ce6040600020541515610d6f565b81600052600281526040600020600881019060ff8254161561045e5760098101548015908115610454575b501561041b578415158061040d575b156103c857908161037c866007819695019283549361034d61032a8685610cbe565b600684019661034661033e89548094610cd1565b9b8c93610df1565b8855610df1565b905560018060a01b03610370888260038501541683600186015416903390610e2d565b60023392015416610f2a565b54156103ba575b506040519384528301527f36a54e61f475a84cd4a5c3b403be29e6101b05ec843b61fb97c3e123ff59b3f460403393a36001600055005b805460ff1916905584610383565b60405162461bcd60e51b815260048101849052601960248201527f496e73756666696369656e74206f7264657220616d6f756e74000000000000006044820152606490fd5b506006810154851115610308565b60405162461bcd60e51b815260048101849052601160248201527013dc99195c881a185cc8195e1c1a5c9959607a1b6044820152606490fd5b90504210866102f9565b60405162461bcd60e51b81526004810184905260136024820152724f72646572206973206e6f742061637469766560681b6044820152606490fd5b346102905760203660031901126102905760043560005260026020526101a0604060002080549060018060a01b03806001830154169181600282015416826003830154166004830154600584015460068501549060078601549260ff6008880154169460098801549689600b600a8b01549a0154169a6040519c8d5260208d015260408c015260608b015260808a015260a089015260c088015260e08701521515610100860152610120850152610557610140850160ff8316610cb1565b60081c16610160830152610180820152f35b3461029057604036600319011261029057610582610c57565b6001600160a01b0316600090815260036020526040902080546024359190821015610290576020916105b391610c83565b90549060031b1c604051908152f35b3461029057602080600319360112610290576001600160a01b036105e4610c57565b1660005260038152604060002060405190818382549182815201908192600052846000209060005b8682821061066257868661062282880383610dcf565b604051928392818401908285525180915260408401929160005b82811061064b57505050500390f35b83518552869550938101939281019260010161063c565b83548552909301926001928301920161060c565b3461029057602036600319011261029057600435610692610e0a565b8060005260026020526106ab6040600020541515610d6f565b600081815260026020526040902060018101546001600160a01b039190821633810361077d57600882019283549060ff82161561072c576106fe9460069260ff1916905560028401541692015491610f2a565b33907fc0362da6f2ff36b382b34aec0814f6b3cdf89f5ef282a1d1f114d0c0b036d596600080a36001600055005b60405162461bcd60e51b8152602060048201526024808201527f4f7264657220697320616c72656164792063616e63656c6c6564206f722066696044820152631b1b195960e21b6064820152608490fd5b60405162461bcd60e51b815260206004820152602360248201527f4f6e6c7920746865206d616b65722063616e2063616e63656c20746865206f726044820152623232b960e91b6064820152608490fd5b346102905760603660031901126102905760206107fd6107ec610c57565b6107f4610c6d565b60443591610cf1565b604051908152f35b34610290576000366003190112610290576020600154604051908152f35b34610290576101003660031901126102905761083d610c57565b610845610c6d565b9060643590600260a43510156102905760c4356001600160a01b03811681036102905760e435926001600160a01b038416840361029057610884610e0a565b6001600160a01b038316151580610c45575b15610c0857604435151580610bff575b15610bb0576108c260443530336001600160a01b038716610e2d565b60a435610b9057905b600154936000198514610b7a5760018501600155604051916108ec83610db2565b8583523360208401526001600160a01b038581166040850152871660608401526044356080840181905260a0840185905260c084015260e08301849052600161010084015260843561012084015261094a60a4356101408501610dfe565b60018060a01b031661016083015260018060a01b031661018082015283600052600260205260406000208151815560018060a01b036020830151166001600160601b0360a01b6001830154161760018201556002810160018060a01b036040840151166001600160601b0360a01b8254161790556003810160018060a01b036060840151166001600160601b0360a01b8254161790556080820151600482015560a0820151600582015560c0820151600682015560e0820151600782015560088101610100830151151560ff801983541691161790556101208201516009820155600a810190610140830151916002831015610b6457600b92815460ff610100600160a81b0361016088015160081b169216906affffffffffffffffffffff60a81b1617179055019061018060018060a01b03910151166001600160601b0360a01b82541617905533600052600360205260406000209384549468010000000000000000861015610b4e5785610ac7916001602098018155610c83565b81549060031b9086821b91600019901b19161790556040519260018060a01b0316835260018060a01b031684830152604435604083015260608201526084356080820152610b1a60a0820160a435610cb1565b817fb36530d02c8c6048882af404a5b4d167d843c99ff9207356cba577aba77c49dd60c03393a36001600055604051908152f35b634e487b7160e01b600052604160045260246000fd5b634e487b7160e01b600052602160045260246000fd5b634e487b7160e01b600052601160045260246000fd5b50610baa6044356001600160a01b03858116908416610cf1565b906108cb565b60405162461bcd60e51b815260206004820152602160248201527f416d6f756e7473206d7573742062652067726561746572207468616e207a65726044820152606f60f81b6064820152608490fd5b508015156108a6565b60405162461bcd60e51b8152602060048201526015602482015274496e76616c696420746f6b656e206164647265737360581b6044820152606490fd5b506001600160a01b0385161515610896565b600435906001600160a01b038216820361029057565b602435906001600160a01b038216820361029057565b8054821015610c9b5760005260206000200190600090565b634e487b7160e01b600052603260045260246000fd5b906002821015610b645752565b81810292918115918404141715610b7a57565b8115610cdb570490565b634e487b7160e01b600052601260045260246000fd5b610d00610d0691939293610e9f565b92610e9f565b906000831380610d65575b15610d2b57610d2892610d2391610cbe565b610cd1565b90565b60405162461bcd60e51b8152602060048201526012602482015271496e76616c6964207072696365206461746160701b6044820152606490fd5b5060008213610d11565b15610d7657565b60405162461bcd60e51b815260206004820152601460248201527313dc99195c88191bd95cc81b9bdd08195e1a5cdd60621b6044820152606490fd5b6101a0810190811067ffffffffffffffff821117610b4e57604052565b90601f8019910116810190811067ffffffffffffffff821117610b4e57604052565b91908203918211610b7a57565b6002821015610b645752565b600260005414610e1b576002600055565b604051633ee5aeb560e01b8152600490fd5b6040516323b872dd60e01b60208201526001600160a01b03928316602482015292909116604483015260648083019390935291815260a081019181831067ffffffffffffffff841117610b4e57610e8692604052610f76565b565b519069ffffffffffffffffffff8216820361029057565b604051633fabe5a360e21b81529060a090829060049082906001600160a01b03165afa908115610f1e57600091610ed4575090565b905060a0813d60a011610f16575b81610eef60a09383610dcf565b8101031261029057610f0081610e88565b50610f12608060208301519201610e88565b5090565b3d9150610ee2565b6040513d6000823e3d90fd5b60405163a9059cbb60e01b60208201526001600160a01b039092166024830152604480830193909352918152608081019167ffffffffffffffff831182841017610b4e57610e86926040525b60018060a01b031690600080826020829451910182865af13d15611045573d9067ffffffffffffffff82116110315790610fd29160405191610fc26020601f19601f8401160184610dcf565b82523d84602084013e5b84611051565b908151918215159283611002575b505050610fea5750565b60249060405190635274afe760e01b82526004820152fd5b81929350906020918101031261102d57602001519081159182150361102a5750388080610fe0565b80fd5b5080fd5b634e487b7160e01b83526041600452602483fd5b610fd290606090610fcc565b90611078575080511561106657805190602001fd5b604051630a12f52160e11b8152600490fd5b815115806110ab575b611089575090565b604051639996b31560e01b81526001600160a01b039091166004820152602490fd5b50803b1561108156fea2646970667358221220b552ef948cb64ae078bc1bc1d6c78775161543e7dfdfbbe90bda72521b6c450e64736f6c63430008180033",
  "linkReferences": {},
  "deployedLinkReferences": {}
}