{
  "contracts/OrderBook.sol": {
    "OrderBook": {
      "abi": [
        {
          "inputs": [],
          "stateMutability": "nonpayable",
          "type": "constructor"
        },
        {
          "inputs": [
            {
              "internalType": "address",
              "name": "target",
              "type": "address"
            }
          ],
          "name": "AddressEmptyCode",
          "type": "error"
        },
        {
          "inputs": [
            {
              "internalType": "address",
              "name": "account",
              "type": "address"
            }
          ],
          "name": "AddressInsufficientBalance",
          "type": "error"
        },
        {
          "inputs": [],
          "name": "FailedInnerCall",
          "type": "error"
        },
        {
          "inputs": [],
          "name": "ReentrancyGuardReentrantCall",
          "type": "error"
        },
        {
          "inputs": [
            {
              "internalType": "address",
              "name": "token",
              "type": "address"
            }
          ],
          "name": "SafeERC20FailedOperation",
          "type": "error"
        },
        {
          "anonymous": false,
          "inputs": [
            {
              "indexed": true,
              "internalType": "uint256",
              "name": "orderId",
              "type": "uint256"
            },
            {
              "indexed": true,
              "internalType": "address",
              "name": "maker",
              "type": "address"
            }
          ],
          "name": "OrderCancelled",
          "type": "event"
        },
        {
          "anonymous": false,
          "inputs": [
            {
              "indexed": true,
              "internalType": "uint256",
              "name": "orderId",
              "type": "uint256"
            },
            {
              "indexed": true,
              "internalType": "address",
              "name": "maker",
              "type": "address"
            },
            {
              "indexed": false,
              "internalType": "address",
              "name": "tokenA",
              "type": "address"
            },
            {
              "indexed": false,
              "internalType": "address",
              "name": "tokenB",
              "type": "address"
            },
            {
              "indexed": false,
              "internalType": "uint256",
              "name": "amountA",
              "type": "uint256"
            },
            {
              "indexed": false,
              "internalType": "uint256",
              "name": "amountB",
              "type": "uint256"
            },
            {
              "indexed": false,
              "internalType": "uint256",
              "name": "expiry",
              "type": "uint256"
            },
            {
              "indexed": false,
              "internalType": "enum OrderBook.OrderType",
              "name": "orderType",
              "type": "uint8"
            }
          ],
          "name": "OrderCreated",
          "type": "event"
        },
        {
          "anonymous": false,
          "inputs": [
            {
              "indexed": true,
              "internalType": "uint256",
              "name": "orderId",
              "type": "uint256"
            },
            {
              "indexed": true,
              "internalType": "address",
              "name": "filler",
              "type": "address"
            },
            {
              "indexed": false,
              "internalType": "uint256",
              "name": "amountFilled",
              "type": "uint256"
            },
            {
              "indexed": false,
              "internalType": "uint256",
              "name": "amountReceived",
              "type": "uint256"
            }
          ],
          "name": "OrderFilled",
          "type": "event"
        },
        {
          "inputs": [
            {
              "internalType": "contract AggregatorV3Interface",
              "name": "priceFeedA",
              "type": "address"
            },
            {
              "internalType": "contract AggregatorV3Interface",
              "name": "priceFeedB",
              "type": "address"
            },
            {
              "internalType": "uint256",
              "name": "amountA",
              "type": "uint256"
            }
          ],
          "name": "calculateFairAmount",
          "outputs": [
            {
              "internalType": "uint256",
              "name": "",
              "type": "uint256"
            }
          ],
          "stateMutability": "view",
          "type": "function"
        },
        {
          "inputs": [
            {
              "internalType": "uint256",
              "name": "orderId",
              "type": "uint256"
            }
          ],
          "name": "cancelOrder",
          "outputs": [],
          "stateMutability": "nonpayable",
          "type": "function"
        },
        {
          "inputs": [
            {
              "internalType": "address",
              "name": "tokenA",
              "type": "address"
            },
            {
              "internalType": "address",
              "name": "tokenB",
              "type": "address"
            },
            {
              "internalType": "uint256",
              "name": "amountA",
              "type": "uint256"
            },
            {
              "internalType": "uint256",
              "name": "amountB",
              "type": "uint256"
            },
            {
              "internalType": "uint256",
              "name": "expiry",
              "type": "uint256"
            },
            {
              "internalType": "enum OrderBook.OrderType",
              "name": "orderType",
              "type": "uint8"
            },
            {
              "internalType": "address",
              "name": "priceFeedAAddress",
              "type": "address"
            },
            {
              "internalType": "address",
              "name": "priceFeedBAddress",
              "type": "address"
            }
          ],
          "name": "createOrder",
          "outputs": [
            {
              "internalType": "uint256",
              "name": "",
              "type": "uint256"
            }
          ],
          "stateMutability": "nonpayable",
          "type": "function"
        },
        {
          "inputs": [
            {
              "internalType": "uint256",
              "name": "orderId",
              "type": "uint256"
            },
            {
              "internalType": "uint256",
              "name": "amountToFill",
              "type": "uint256"
            }
          ],
          "name": "fillOrder",
          "outputs": [],
          "stateMutability": "nonpayable",
          "type": "function"
        },
        {
          "inputs": [
            {
              "internalType": "uint256",
              "name": "orderId",
              "type": "uint256"
            }
          ],
          "name": "getOrderDetails",
          "outputs": [
            {
              "components": [
                {
                  "internalType": "uint256",
                  "name": "orderId",
                  "type": "uint256"
                },
                {
                  "internalType": "address",
                  "name": "maker",
                  "type": "address"
                },
                {
                  "internalType": "contract IERC20",
                  "name": "tokenA",
                  "type": "address"
                },
                {
                  "internalType": "contract IERC20",
                  "name": "tokenB",
                  "type": "address"
                },
                {
                  "internalType": "uint256",
                  "name": "amountA",
                  "type": "uint256"
                },
                {
                  "internalType": "uint256",
                  "name": "amountB",
                  "type": "uint256"
                },
                {
                  "internalType": "uint256",
                  "name": "remainingA",
                  "type": "uint256"
                },
                {
                  "internalType": "uint256",
                  "name": "remainingB",
                  "type": "uint256"
                },
                {
                  "internalType": "bool",
                  "name": "isActive",
                  "type": "bool"
                },
                {
                  "internalType": "uint256",
                  "name": "expiry",
                  "type": "uint256"
                },
                {
                  "internalType": "enum OrderBook.OrderType",
                  "name": "orderType",
                  "type": "uint8"
                },
                {
                  "internalType": "contract AggregatorV3Interface",
                  "name": "priceFeedA",
                  "type": "address"
                },
                {
                  "internalType": "contract AggregatorV3Interface",
                  "name": "priceFeedB",
                  "type": "address"
                }
              ],
              "internalType": "struct OrderBook.Order",
              "name": "",
              "type": "tuple"
            }
          ],
          "stateMutability": "view",
          "type": "function"
        },
        {
          "inputs": [
            {
              "internalType": "address",
              "name": "user",
              "type": "address"
            }
          ],
          "name": "getUserOrders",
          "outputs": [
            {
              "internalType": "uint256[]",
              "name": "",
              "type": "uint256[]"
            }
          ],
          "stateMutability": "view",
          "type": "function"
        },
        {
          "inputs": [],
          "name": "nextOrderId",
          "outputs": [
            {
              "internalType": "uint256",
              "name": "",
              "type": "uint256"
            }
          ],
          "stateMutability": "view",
          "type": "function"
        },
        {
          "inputs": [
            {
              "internalType": "uint256",
              "name": "",
              "type": "uint256"
            }
          ],
          "name": "orders",
          "outputs": [
            {
              "internalType": "uint256",
              "name": "orderId",
              "type": "uint256"
            },
            {
              "internalType": "address",
              "name": "maker",
              "type": "address"
            },
            {
              "internalType": "contract IERC20",
              "name": "tokenA",
              "type": "address"
            },
            {
              "internalType": "contract IERC20",
              "name": "tokenB",
              "type": "address"
            },
            {
              "internalType": "uint256",
              "name": "amountA",
              "type": "uint256"
            },
            {
              "internalType": "uint256",
              "name": "amountB",
              "type": "uint256"
            },
            {
              "internalType": "uint256",
              "name": "remainingA",
              "type": "uint256"
            },
            {
              "internalType": "uint256",
              "name": "remainingB",
              "type": "uint256"
            },
            {
              "internalType": "bool",
              "name": "isActive",
              "type": "bool"
            },
            {
              "internalType": "uint256",
              "name": "expiry",
              "type": "uint256"
            },
            {
              "internalType": "enum OrderBook.OrderType",
              "name": "orderType",
              "type": "uint8"
            },
            {
              "internalType": "contract AggregatorV3Interface",
              "name": "priceFeedA",
              "type": "address"
            },
            {
              "internalType": "contract AggregatorV3Interface",
              "name": "priceFeedB",
              "type": "address"
            }
          ],
          "stateMutability": "view",
          "type": "function"
        },
        {
          "inputs": [
            {
              "internalType": "address",
              "name": "",
              "type": "address"
            },
            {
              "internalType": "uint256",
              "name": "",
              "type": "uint256"
            }
          ],
          "name": "userOrders",
          "outputs": [
            {
              "internalType": "uint256",
              "name": "",
              "type": "uint256"
            }
          ],
          "stateMutability": "view",
          "type": "function"
        }
      ],
      "evm": {
        "bytecode": {
          "linkReferences": {},
          "object": "6080806040523461001b5760016000556110ea90816100218239f35b600080fdfe6080604052600436101561001257600080fd5b60003560e01c806323d07835146108235780632a58b3301461080557806330dbce66146107ce578063514fcac71461067657806363c69f08146105c2578063856652e914610569578063a85c38ef14610499578063c37dfc5b146102955763ec7dd7bb1461007f57600080fd5b346102905760203660031901126102905760043560006101806040516100a481610db2565b8281528260208201528260408201528260608201528260808201528260a08201528260c08201528260e08201528261010082015282610120820152826101408201528261016082015201528060005260026020526101086040600020541515610d6f565b60005260026020526101a060406000206040519061012582610db2565b8054825260018101546001600160a01b039081166020840152600282015481166040840152600382015416606083015260048101546080830152600581015460a0830152600681015460c0830152600781015460e0830152600881015460ff90811615156101008401526009820154610120840152600a820154906101b09082166101408501610dfe565b60018060a01b039060081c16610160830152600b60018060a01b0391015416610180820152604051908051825260018060a01b03602082015116602083015260018060a01b03604082015116604083015260018060a01b0360608201511660608301526080810151608083015260a081015160a083015260c081015160c083015260e081015160e08301526101008101511515610100830152610120810151610120830152610269610140820151610140840190610cb1565b610160818101516001600160a01b0390811691840191909152610180918201511690820152f35b600080fd5b34610290576040366003190112610290576024356004356102b4610e0a565b806000526020600281526102ce6040600020541515610d6f565b81600052600281526040600020600881019060ff8254161561045e5760098101548015908115610454575b501561041b578415158061040d575b156103c857908161037c866007819695019283549361034d61032a8685610cbe565b600684019661034661033e89548094610cd1565b9b8c93610df1565b8855610df1565b905560018060a01b03610370888260038501541683600186015416903390610e2d565b60023392015416610f2a565b54156103ba575b506040519384528301527f36a54e61f475a84cd4a5c3b403be29e6101b05ec843b61fb97c3e123ff59b3f460403393a36001600055005b805460ff1916905584610383565b60405162461bcd60e51b815260048101849052601960248201527f496e73756666696369656e74206f7264657220616d6f756e74000000000000006044820152606490fd5b506006810154851115610308565b60405162461bcd60e51b815260048101849052601160248201527013dc99195c881a185cc8195e1c1a5c9959607a1b6044820152606490fd5b90504210866102f9565b60405162461bcd60e51b81526004810184905260136024820152724f72646572206973206e6f742061637469766560681b6044820152606490fd5b346102905760203660031901126102905760043560005260026020526101a0604060002080549060018060a01b03806001830154169181600282015416826003830154166004830154600584015460068501549060078601549260ff6008880154169460098801549689600b600a8b01549a0154169a6040519c8d5260208d015260408c015260608b015260808a015260a089015260c088015260e08701521515610100860152610120850152610557610140850160ff8316610cb1565b60081c16610160830152610180820152f35b3461029057604036600319011261029057610582610c57565b6001600160a01b0316600090815260036020526040902080546024359190821015610290576020916105b391610c83565b90549060031b1c604051908152f35b3461029057602080600319360112610290576001600160a01b036105e4610c57565b1660005260038152604060002060405190818382549182815201908192600052846000209060005b8682821061066257868661062282880383610dcf565b604051928392818401908285525180915260408401929160005b82811061064b57505050500390f35b83518552869550938101939281019260010161063c565b83548552909301926001928301920161060c565b3461029057602036600319011261029057600435610692610e0a565b8060005260026020526106ab6040600020541515610d6f565b600081815260026020526040902060018101546001600160a01b039190821633810361077d57600882019283549060ff82161561072c576106fe9460069260ff1916905560028401541692015491610f2a565b33907fc0362da6f2ff36b382b34aec0814f6b3cdf89f5ef282a1d1f114d0c0b036d596600080a36001600055005b60405162461bcd60e51b8152602060048201526024808201527f4f7264657220697320616c72656164792063616e63656c6c6564206f722066696044820152631b1b195960e21b6064820152608490fd5b60405162461bcd60e51b815260206004820152602360248201527f4f6e6c7920746865206d616b65722063616e2063616e63656c20746865206f726044820152623232b960e91b6064820152608490fd5b346102905760603660031901126102905760206107fd6107ec610c57565b6107f4610c6d565b60443591610cf1565b604051908152f35b34610290576000366003190112610290576020600154604051908152f35b34610290576101003660031901126102905761083d610c57565b610845610c6d565b9060643590600260a43510156102905760c4356001600160a01b03811681036102905760e435926001600160a01b038416840361029057610884610e0a565b6001600160a01b038316151580610c45575b15610c0857604435151580610bff575b15610bb0576108c260443530336001600160a01b038716610e2d565b60a435610b9057905b600154936000198514610b7a5760018501600155604051916108ec83610db2565b8583523360208401526001600160a01b038581166040850152871660608401526044356080840181905260a0840185905260c084015260e08301849052600161010084015260843561012084015261094a60a4356101408501610dfe565b60018060a01b031661016083015260018060a01b031661018082015283600052600260205260406000208151815560018060a01b036020830151166001600160601b0360a01b6001830154161760018201556002810160018060a01b036040840151166001600160601b0360a01b8254161790556003810160018060a01b036060840151166001600160601b0360a01b8254161790556080820151600482015560a0820151600582015560c0820151600682015560e0820151600782015560088101610100830151151560ff801983541691161790556101208201516009820155600a810190610140830151916002831015610b6457600b92815460ff610100600160a81b0361016088015160081b169216906affffffffffffffffffffff60a81b1617179055019061018060018060a01b03910151166001600160601b0360a01b82541617905533600052600360205260406000209384549468010000000000000000861015610b4e5785610ac7916001602098018155610c83565b81549060031b9086821b91600019901b19161790556040519260018060a01b0316835260018060a01b031684830152604435604083015260608201526084356080820152610b1a60a0820160a435610cb1565b817fb36530d02c8c6048882af404a5b4d167d843c99ff9207356cba577aba77c49dd60c03393a36001600055604051908152f35b634e487b7160e01b600052604160045260246000fd5b634e487b7160e01b600052602160045260246000fd5b634e487b7160e01b600052601160045260246000fd5b50610baa6044356001600160a01b03858116908416610cf1565b906108cb565b60405162461bcd60e51b815260206004820152602160248201527f416d6f756e7473206d7573742062652067726561746572207468616e207a65726044820152606f60f81b6064820152608490fd5b508015156108a6565b60405162461bcd60e51b8152602060048201526015602482015274496e76616c696420746f6b656e206164647265737360581b6044820152606490fd5b506001600160a01b0385161515610896565b600435906001600160a01b038216820361029057565b602435906001600160a01b038216820361029057565b8054821015610c9b5760005260206000200190600090565b634e487b7160e01b600052603260045260246000fd5b906002821015610b645752565b81810292918115918404141715610b7a57565b8115610cdb570490565b634e487b7160e01b600052601260045260246000fd5b610d00610d0691939293610e9f565b92610e9f565b906000831380610d65575b15610d2b57610d2892610d2391610cbe565b610cd1565b90565b60405162461bcd60e51b8152602060048201526012602482015271496e76616c6964207072696365206461746160701b6044820152606490fd5b5060008213610d11565b15610d7657565b60405162461bcd60e51b815260206004820152601460248201527313dc99195c88191bd95cc81b9bdd08195e1a5cdd60621b6044820152606490fd5b6101a0810190811067ffffffffffffffff821117610b4e57604052565b90601f8019910116810190811067ffffffffffffffff821117610b4e57604052565b91908203918211610b7a57565b6002821015610b645752565b600260005414610e1b576002600055565b604051633ee5aeb560e01b8152600490fd5b6040516323b872dd60e01b60208201526001600160a01b03928316602482015292909116604483015260648083019390935291815260a081019181831067ffffffffffffffff841117610b4e57610e8692604052610f76565b565b519069ffffffffffffffffffff8216820361029057565b604051633fabe5a360e21b81529060a090829060049082906001600160a01b03165afa908115610f1e57600091610ed4575090565b905060a0813d60a011610f16575b81610eef60a09383610dcf565b8101031261029057610f0081610e88565b50610f12608060208301519201610e88565b5090565b3d9150610ee2565b6040513d6000823e3d90fd5b60405163a9059cbb60e01b60208201526001600160a01b039092166024830152604480830193909352918152608081019167ffffffffffffffff831182841017610b4e57610e86926040525b60018060a01b031690600080826020829451910182865af13d15611045573d9067ffffffffffffffff82116110315790610fd29160405191610fc26020601f19601f8401160184610dcf565b82523d84602084013e5b84611051565b908151918215159283611002575b505050610fea5750565b60249060405190635274afe760e01b82526004820152fd5b81929350906020918101031261102d57602001519081159182150361102a5750388080610fe0565b80fd5b5080fd5b634e487b7160e01b83526041600452602483fd5b610fd290606090610fcc565b90611078575080511561106657805190602001fd5b604051630a12f52160e11b8152600490fd5b815115806110ab575b611089575090565b604051639996b31560e01b81526001600160a01b039091166004820152602490fd5b50803b1561108156fea2646970667358221220b552ef948cb64ae078bc1bc1d6c78775161543e7dfdfbbe90bda72521b6c450e64736f6c63430008180033",
          "opcodes": "PUSH1 0x80 DUP1 PUSH1 0x40 MSTORE CALLVALUE PUSH2 0x1B JUMPI PUSH1 0x1 PUSH1 0x0 SSTORE PUSH2 0x10EA SWAP1 DUP2 PUSH2 0x21 DUP3 CODECOPY RETURN JUMPDEST PUSH1 0x0 DUP1 REVERT INVALID PUSH1 0x80 PUSH1 0x40 MSTORE PUSH1 0x4 CALLDATASIZE LT ISZERO PUSH2 0x12 JUMPI PUSH1 0x0 DUP1 REVERT JUMPDEST PUSH1 0x0 CALLDATALOAD PUSH1 0xE0 SHR DUP1 PUSH4 0x23D07835 EQ PUSH2 0x823 JUMPI DUP1 PUSH4 0x2A58B330 EQ PUSH2 0x805 JUMPI DUP1 PUSH4 0x30DBCE66 EQ PUSH2 0x7CE JUMPI DUP1 PUSH4 0x514FCAC7 EQ PUSH2 0x676 JUMPI DUP1 PUSH4 0x63C69F08 EQ PUSH2 0x5C2 JUMPI DUP1 PUSH4 0x856652E9 EQ PUSH2 0x569 JUMPI DUP1 PUSH4 0xA85C38EF EQ PUSH2 0x499 JUMPI DUP1 PUSH4 0xC37DFC5B EQ PUSH2 0x295 JUMPI PUSH4 0xEC7DD7BB EQ PUSH2 0x7F JUMPI PUSH1 0x0 DUP1 REVERT JUMPDEST CALLVALUE PUSH2 0x290 JUMPI PUSH1 0x20 CALLDATASIZE PUSH1 0x3 NOT ADD SLT PUSH2 0x290 JUMPI PUSH1 0x4 CALLDATALOAD PUSH1 0x0 PUSH2 0x180 PUSH1 0x40 MLOAD PUSH2 0xA4 DUP2 PUSH2 0xDB2 JUMP JUMPDEST DUP3 DUP2 MSTORE DUP3 PUSH1 0x20 DUP3 ADD MSTORE DUP3 PUSH1 0x40 DUP3 ADD MSTORE DUP3 PUSH1 0x60 DUP3 ADD MSTORE DUP3 PUSH1 0x80 DUP3 ADD MSTORE DUP3 PUSH1 0xA0 DUP3 ADD MSTORE DUP3 PUSH1 0xC0 DUP3 ADD MSTORE DUP3 PUSH1 0xE0 DUP3 ADD MSTORE DUP3 PUSH2 0x100 DUP3 ADD MSTORE DUP3 PUSH2 0x120 DUP3 ADD MSTORE DUP3 PUSH2 0x140 DUP3 ADD MSTORE DUP3 PUSH2 0x160 DUP3 ADD MSTORE ADD MSTORE DUP1 PUSH1 0x0 MSTORE PUSH1 0x2 PUSH1 0x20 MSTORE PUSH2 0x108 PUSH1 0x40 PUSH1 0x0 KECCAK256 SLOAD ISZERO ISZERO PUSH2 0xD6F JUMP JUMPDEST PUSH1 0x0 MSTORE PUSH1 0x2 PUSH1 0x20 MSTORE PUSH2 0x1A0 PUSH1 0x40 PUSH1 0x0 KECCAK256 PUSH1 0x40 MLOAD SWAP1 PUSH2 0x125 DUP3 PUSH2 0xDB2 JUMP JUMPDEST DUP1 SLOAD DUP3 MSTORE PUSH1 0x1 DUP2 ADD SLOAD PUSH1 0x1 PUSH1 0x1 PUSH1 0xA0 SHL SUB SWAP1 DUP2 AND PUSH1 0x20 DUP5 ADD MSTORE PUSH1 0x2 DUP3 ADD SLOAD DUP2 AND PUSH1 0x40 DUP5 ADD MSTORE PUSH1 0x3 DUP3 ADD SLOAD AND PUSH1 0x60 DUP4 ADD MSTORE PUSH1 0x4 DUP2 ADD SLOAD PUSH1 0x80 DUP4 ADD MSTORE PUSH1 0x5 DUP2 ADD SLOAD PUSH1 0xA0 DUP4 ADD MSTORE PUSH1 0x6 DUP2 ADD SLOAD PUSH1 0xC0 DUP4 ADD MSTORE PUSH1 0x7 DUP2 ADD SLOAD PUSH1 0xE0 DUP4 ADD MSTORE PUSH1 0x8 DUP2 ADD SLOAD PUSH1 0xFF SWAP1 DUP2 AND ISZERO ISZERO PUSH2 0x100 DUP5 ADD MSTORE PUSH1 0x9 DUP3 ADD SLOAD PUSH2 0x120 DUP5 ADD MSTORE PUSH1 0xA DUP3 ADD SLOAD SWAP1 PUSH2 0x1B0 SWAP1 DUP3 AND PUSH2 0x140 DUP6 ADD PUSH2 0xDFE JUMP JUMPDEST PUSH1 0x1 DUP1 PUSH1 0xA0 SHL SUB SWAP1 PUSH1 0x8 SHR AND PUSH2 0x160 DUP4 ADD MSTORE PUSH1 0xB PUSH1 0x1 DUP1 PUSH1 0xA0 SHL SUB SWAP2 ADD SLOAD AND PUSH2 0x180 DUP3 ADD MSTORE PUSH1 0x40 MLOAD SWAP1 DUP1 MLOAD DUP3 MSTORE PUSH1 0x1 DUP1 PUSH1 0xA0 SHL SUB PUSH1 0x20 DUP3 ADD MLOAD AND PUSH1 0x20 DUP4 ADD MSTORE PUSH1 0x1 DUP1 PUSH1 0xA0 SHL SUB PUSH1 0x40 DUP3 ADD MLOAD AND PUSH1 0x40 DUP4 ADD MSTORE PUSH1 0x1 DUP1 PUSH1 0xA0 SHL SUB PUSH1 0x60 DUP3 ADD MLOAD AND PUSH1 0x60 DUP4 ADD MSTORE PUSH1 0x80 DUP2 ADD MLOAD PUSH1 0x80 DUP4 ADD MSTORE PUSH1 0xA0 DUP2 ADD MLOAD PUSH1 0xA0 DUP4 ADD MSTORE PUSH1 0xC0 DUP2 ADD MLOAD PUSH1 0xC0 DUP4 ADD MSTORE PUSH1 0xE0 DUP2 ADD MLOAD PUSH1 0xE0 DUP4 ADD MSTORE PUSH2 0x100 DUP2 ADD MLOAD ISZERO ISZERO PUSH2 0x100 DUP4 ADD MSTORE PUSH2 0x120 DUP2 ADD MLOAD PUSH2 0x120 DUP4 ADD MSTORE PUSH2 0x269 PUSH2 0x140 DUP3 ADD MLOAD PUSH2 0x140 DUP5 ADD SWAP1 PUSH2 0xCB1 JUMP JUMPDEST PUSH2 0x160 DUP2 DUP2 ADD MLOAD PUSH1 0x1 PUSH1 0x1 PUSH1 0xA0 SHL SUB SWAP1 DUP2 AND SWAP2 DUP5 ADD SWAP2 SWAP1 SWAP2 MSTORE PUSH2 0x180 SWAP2 DUP3 ADD MLOAD AND SWAP1 DUP3 ADD MSTORE RETURN JUMPDEST PUSH1 0x0 DUP1 REVERT JUMPDEST CALLVALUE PUSH2 0x290 JUMPI PUSH1 0x40 CALLDATASIZE PUSH1 0x3 NOT ADD SLT PUSH2 0x290 JUMPI PUSH1 0x24 CALLDATALOAD PUSH1 0x4 CALLDATALOAD PUSH2 0x2B4 PUSH2 0xE0A JUMP JUMPDEST DUP1 PUSH1 0x0 MSTORE PUSH1 0x20 PUSH1 0x2 DUP2 MSTORE PUSH2 0x2CE PUSH1 0x40 PUSH1 0x0 KECCAK256 SLOAD ISZERO ISZERO PUSH2 0xD6F JUMP JUMPDEST DUP2 PUSH1 0x0 MSTORE PUSH1 0x2 DUP2 MSTORE PUSH1 0x40 PUSH1 0x0 KECCAK256 PUSH1 0x8 DUP2 ADD SWAP1 PUSH1 0xFF DUP3 SLOAD AND ISZERO PUSH2 0x45E JUMPI PUSH1 0x9 DUP2 ADD SLOAD DUP1 ISZERO SWAP1 DUP2 ISZERO PUSH2 0x454 JUMPI JUMPDEST POP ISZERO PUSH2 0x41B JUMPI DUP5 ISZERO ISZERO DUP1 PUSH2 0x40D JUMPI JUMPDEST ISZERO PUSH2 0x3C8 JUMPI SWAP1 DUP2 PUSH2 0x37C DUP7 PUSH1 0x7 DUP2 SWAP7 SWAP6 ADD SWAP3 DUP4 SLOAD SWAP4 PUSH2 0x34D PUSH2 0x32A DUP7 DUP6 PUSH2 0xCBE JUMP JUMPDEST PUSH1 0x6 DUP5 ADD SWAP7 PUSH2 0x346 PUSH2 0x33E DUP10 SLOAD DUP1 SWAP5 PUSH2 0xCD1 JUMP JUMPDEST SWAP12 DUP13 SWAP4 PUSH2 0xDF1 JUMP JUMPDEST DUP9 SSTORE PUSH2 0xDF1 JUMP JUMPDEST SWAP1 SSTORE PUSH1 0x1 DUP1 PUSH1 0xA0 SHL SUB PUSH2 0x370 DUP9 DUP3 PUSH1 0x3 DUP6 ADD SLOAD AND DUP4 PUSH1 0x1 DUP7 ADD SLOAD AND SWAP1 CALLER SWAP1 PUSH2 0xE2D JUMP JUMPDEST PUSH1 0x2 CALLER SWAP3 ADD SLOAD AND PUSH2 0xF2A JUMP JUMPDEST SLOAD ISZERO PUSH2 0x3BA JUMPI JUMPDEST POP PUSH1 0x40 MLOAD SWAP4 DUP5 MSTORE DUP4 ADD MSTORE PUSH32 0x36A54E61F475A84CD4A5C3B403BE29E6101B05EC843B61FB97C3E123FF59B3F4 PUSH1 0x40 CALLER SWAP4 LOG3 PUSH1 0x1 PUSH1 0x0 SSTORE STOP JUMPDEST DUP1 SLOAD PUSH1 0xFF NOT AND SWAP1 SSTORE DUP5 PUSH2 0x383 JUMP JUMPDEST PUSH1 0x40 MLOAD PUSH3 0x461BCD PUSH1 0xE5 SHL DUP2 MSTORE PUSH1 0x4 DUP2 ADD DUP5 SWAP1 MSTORE PUSH1 0x19 PUSH1 0x24 DUP3 ADD MSTORE PUSH32 0x496E73756666696369656E74206F7264657220616D6F756E7400000000000000 PUSH1 0x44 DUP3 ADD MSTORE PUSH1 0x64 SWAP1 REVERT JUMPDEST POP PUSH1 0x6 DUP2 ADD SLOAD DUP6 GT ISZERO PUSH2 0x308 JUMP JUMPDEST PUSH1 0x40 MLOAD PUSH3 0x461BCD PUSH1 0xE5 SHL DUP2 MSTORE PUSH1 0x4 DUP2 ADD DUP5 SWAP1 MSTORE PUSH1 0x11 PUSH1 0x24 DUP3 ADD MSTORE PUSH17 0x13DC99195C881A185CC8195E1C1A5C9959 PUSH1 0x7A SHL PUSH1 0x44 DUP3 ADD MSTORE PUSH1 0x64 SWAP1 REVERT JUMPDEST SWAP1 POP TIMESTAMP LT DUP7 PUSH2 0x2F9 JUMP JUMPDEST PUSH1 0x40 MLOAD PUSH3 0x461BCD PUSH1 0xE5 SHL DUP2 MSTORE PUSH1 0x4 DUP2 ADD DUP5 SWAP1 MSTORE PUSH1 0x13 PUSH1 0x24 DUP3 ADD MSTORE PUSH19 0x4F72646572206973206E6F7420616374697665 PUSH1 0x68 SHL PUSH1 0x44 DUP3 ADD MSTORE PUSH1 0x64 SWAP1 REVERT JUMPDEST CALLVALUE PUSH2 0x290 JUMPI PUSH1 0x20 CALLDATASIZE PUSH1 0x3 NOT ADD SLT PUSH2 0x290 JUMPI PUSH1 0x4 CALLDATALOAD PUSH1 0x0 MSTORE PUSH1 0x2 PUSH1 0x20 MSTORE PUSH2 0x1A0 PUSH1 0x40 PUSH1 0x0 KECCAK256 DUP1 SLOAD SWAP1 PUSH1 0x1 DUP1 PUSH1 0xA0 SHL SUB DUP1 PUSH1 0x1 DUP4 ADD SLOAD AND SWAP2 DUP2 PUSH1 0x2 DUP3 ADD SLOAD AND DUP3 PUSH1 0x3 DUP4 ADD SLOAD AND PUSH1 0x4 DUP4 ADD SLOAD PUSH1 0x5 DUP5 ADD SLOAD PUSH1 0x6 DUP6 ADD SLOAD SWAP1 PUSH1 0x7 DUP7 ADD SLOAD SWAP3 PUSH1 0xFF PUSH1 0x8 DUP9 ADD SLOAD AND SWAP5 PUSH1 0x9 DUP9 ADD SLOAD SWAP7 DUP10 PUSH1 0xB PUSH1 0xA DUP12 ADD SLOAD SWAP11 ADD SLOAD AND SWAP11 PUSH1 0x40 MLOAD SWAP13 DUP14 MSTORE PUSH1 0x20 DUP14 ADD MSTORE PUSH1 0x40 DUP13 ADD MSTORE PUSH1 0x60 DUP12 ADD MSTORE PUSH1 0x80 DUP11 ADD MSTORE PUSH1 0xA0 DUP10 ADD MSTORE PUSH1 0xC0 DUP9 ADD MSTORE PUSH1 0xE0 DUP8 ADD MSTORE ISZERO ISZERO PUSH2 0x100 DUP7 ADD MSTORE PUSH2 0x120 DUP6 ADD MSTORE PUSH2 0x557 PUSH2 0x140 DUP6 ADD PUSH1 0xFF DUP4 AND PUSH2 0xCB1 JUMP JUMPDEST PUSH1 0x8 SHR AND PUSH2 0x160 DUP4 ADD MSTORE PUSH2 0x180 DUP3 ADD MSTORE RETURN JUMPDEST CALLVALUE PUSH2 0x290 JUMPI PUSH1 0x40 CALLDATASIZE PUSH1 0x3 NOT ADD SLT PUSH2 0x290 JUMPI PUSH2 0x582 PUSH2 0xC57 JUMP JUMPDEST PUSH1 0x1 PUSH1 0x1 PUSH1 0xA0 SHL SUB AND PUSH1 0x0 SWAP1 DUP2 MSTORE PUSH1 0x3 PUSH1 0x20 MSTORE PUSH1 0x40 SWAP1 KECCAK256 DUP1 SLOAD PUSH1 0x24 CALLDATALOAD SWAP2 SWAP1 DUP3 LT ISZERO PUSH2 0x290 JUMPI PUSH1 0x20 SWAP2 PUSH2 0x5B3 SWAP2 PUSH2 0xC83 JUMP JUMPDEST SWAP1 SLOAD SWAP1 PUSH1 0x3 SHL SHR PUSH1 0x40 MLOAD SWAP1 DUP2 MSTORE RETURN JUMPDEST CALLVALUE PUSH2 0x290 JUMPI PUSH1 0x20 DUP1 PUSH1 0x3 NOT CALLDATASIZE ADD SLT PUSH2 0x290 JUMPI PUSH1 0x1 PUSH1 0x1 PUSH1 0xA0 SHL SUB PUSH2 0x5E4 PUSH2 0xC57 JUMP JUMPDEST AND PUSH1 0x0 MSTORE PUSH1 0x3 DUP2 MSTORE PUSH1 0x40 PUSH1 0x0 KECCAK256 PUSH1 0x40 MLOAD SWAP1 DUP2 DUP4 DUP3 SLOAD SWAP2 DUP3 DUP2 MSTORE ADD SWAP1 DUP2 SWAP3 PUSH1 0x0 MSTORE DUP5 PUSH1 0x0 KECCAK256 SWAP1 PUSH1 0x0 JUMPDEST DUP7 DUP3 DUP3 LT PUSH2 0x662 JUMPI DUP7 DUP7 PUSH2 0x622 DUP3 DUP9 SUB DUP4 PUSH2 0xDCF JUMP JUMPDEST PUSH1 0x40 MLOAD SWAP3 DUP4 SWAP3 DUP2 DUP5 ADD SWAP1 DUP3 DUP6 MSTORE MLOAD DUP1 SWAP2 MSTORE PUSH1 0x40 DUP5 ADD SWAP3 SWAP2 PUSH1 0x0 JUMPDEST DUP3 DUP2 LT PUSH2 0x64B JUMPI POP POP POP POP SUB SWAP1 RETURN JUMPDEST DUP4 MLOAD DUP6 MSTORE DUP7 SWAP6 POP SWAP4 DUP2 ADD SWAP4 SWAP3 DUP2 ADD SWAP3 PUSH1 0x1 ADD PUSH2 0x63C JUMP JUMPDEST DUP4 SLOAD DUP6 MSTORE SWAP1 SWAP4 ADD SWAP3 PUSH1 0x1 SWAP3 DUP4 ADD SWAP3 ADD PUSH2 0x60C JUMP JUMPDEST CALLVALUE PUSH2 0x290 JUMPI PUSH1 0x20 CALLDATASIZE PUSH1 0x3 NOT ADD SLT PUSH2 0x290 JUMPI PUSH1 0x4 CALLDATALOAD PUSH2 0x692 PUSH2 0xE0A JUMP JUMPDEST DUP1 PUSH1 0x0 MSTORE PUSH1 0x2 PUSH1 0x20 MSTORE PUSH2 0x6AB PUSH1 0x40 PUSH1 0x0 KECCAK256 SLOAD ISZERO ISZERO PUSH2 0xD6F JUMP JUMPDEST PUSH1 0x0 DUP2 DUP2 MSTORE PUSH1 0x2 PUSH1 0x20 MSTORE PUSH1 0x40 SWAP1 KECCAK256 PUSH1 0x1 DUP2 ADD SLOAD PUSH1 0x1 PUSH1 0x1 PUSH1 0xA0 SHL SUB SWAP2 SWAP1 DUP3 AND CALLER DUP2 SUB PUSH2 0x77D JUMPI PUSH1 0x8 DUP3 ADD SWAP3 DUP4 SLOAD SWAP1 PUSH1 0xFF DUP3 AND ISZERO PUSH2 0x72C JUMPI PUSH2 0x6FE SWAP5 PUSH1 0x6 SWAP3 PUSH1 0xFF NOT AND SWAP1 SSTORE PUSH1 0x2 DUP5 ADD SLOAD AND SWAP3 ADD SLOAD SWAP2 PUSH2 0xF2A JUMP JUMPDEST CALLER SWAP1 PUSH32 0xC0362DA6F2FF36B382B34AEC0814F6B3CDF89F5EF282A1D1F114D0C0B036D596 PUSH1 0x0 DUP1 LOG3 PUSH1 0x1 PUSH1 0x0 SSTORE STOP JUMPDEST PUSH1 0x40 MLOAD PUSH3 0x461BCD PUSH1 0xE5 SHL DUP2 MSTORE PUSH1 0x20 PUSH1 0x4 DUP3 ADD MSTORE PUSH1 0x24 DUP1 DUP3 ADD MSTORE PUSH32 0x4F7264657220697320616C72656164792063616E63656C6C6564206F72206669 PUSH1 0x44 DUP3 ADD MSTORE PUSH4 0x1B1B1959 PUSH1 0xE2 SHL PUSH1 0x64 DUP3 ADD MSTORE PUSH1 0x84 SWAP1 REVERT JUMPDEST PUSH1 0x40 MLOAD PUSH3 0x461BCD PUSH1 0xE5 SHL DUP2 MSTORE PUSH1 0x20 PUSH1 0x4 DUP3 ADD MSTORE PUSH1 0x23 PUSH1 0x24 DUP3 ADD MSTORE PUSH32 0x4F6E6C7920746865206D616B65722063616E2063616E63656C20746865206F72 PUSH1 0x44 DUP3 ADD MSTORE PUSH3 0x3232B9 PUSH1 0xE9 SHL PUSH1 0x64 DUP3 ADD MSTORE PUSH1 0x84 SWAP1 REVERT JUMPDEST CALLVALUE PUSH2 0x290 JUMPI PUSH1 0x60 CALLDATASIZE PUSH1 0x3 NOT ADD SLT PUSH2 0x290 JUMPI PUSH1 0x20 PUSH2 0x7FD PUSH2 0x7EC PUSH2 0xC57 JUMP JUMPDEST PUSH2 0x7F4 PUSH2 0xC6D JUMP JUMPDEST PUSH1 0x44 CALLDATALOAD SWAP2 PUSH2 0xCF1 JUMP JUMPDEST PUSH1 0x40 MLOAD SWAP1 DUP2 MSTORE RETURN JUMPDEST CALLVALUE PUSH2 0x290 JUMPI PUSH1 0x0 CALLDATASIZE PUSH1 0x3 NOT ADD SLT PUSH2 0x290 JUMPI PUSH1 0x20 PUSH1 0x1 SLOAD PUSH1 0x40 MLOAD SWAP1 DUP2 MSTORE RETURN JUMPDEST CALLVALUE PUSH2 0x290 JUMPI PUSH2 0x100 CALLDATASIZE PUSH1 0x3 NOT ADD SLT PUSH2 0x290 JUMPI PUSH2 0x83D PUSH2 0xC57 JUMP JUMPDEST PUSH2 0x845 PUSH2 0xC6D JUMP JUMPDEST SWAP1 PUSH1 0x64 CALLDATALOAD SWAP1 PUSH1 0x2 PUSH1 0xA4 CALLDATALOAD LT ISZERO PUSH2 0x290 JUMPI PUSH1 0xC4 CALLDATALOAD PUSH1 0x1 PUSH1 0x1 PUSH1 0xA0 SHL SUB DUP2 AND DUP2 SUB PUSH2 0x290 JUMPI PUSH1 0xE4 CALLDATALOAD SWAP3 PUSH1 0x1 PUSH1 0x1 PUSH1 0xA0 SHL SUB DUP5 AND DUP5 SUB PUSH2 0x290 JUMPI PUSH2 0x884 PUSH2 0xE0A JUMP JUMPDEST PUSH1 0x1 PUSH1 0x1 PUSH1 0xA0 SHL SUB DUP4 AND ISZERO ISZERO DUP1 PUSH2 0xC45 JUMPI JUMPDEST ISZERO PUSH2 0xC08 JUMPI PUSH1 0x44 CALLDATALOAD ISZERO ISZERO DUP1 PUSH2 0xBFF JUMPI JUMPDEST ISZERO PUSH2 0xBB0 JUMPI PUSH2 0x8C2 PUSH1 0x44 CALLDATALOAD ADDRESS CALLER PUSH1 0x1 PUSH1 0x1 PUSH1 0xA0 SHL SUB DUP8 AND PUSH2 0xE2D JUMP JUMPDEST PUSH1 0xA4 CALLDATALOAD PUSH2 0xB90 JUMPI SWAP1 JUMPDEST PUSH1 0x1 SLOAD SWAP4 PUSH1 0x0 NOT DUP6 EQ PUSH2 0xB7A JUMPI PUSH1 0x1 DUP6 ADD PUSH1 0x1 SSTORE PUSH1 0x40 MLOAD SWAP2 PUSH2 0x8EC DUP4 PUSH2 0xDB2 JUMP JUMPDEST DUP6 DUP4 MSTORE CALLER PUSH1 0x20 DUP5 ADD MSTORE PUSH1 0x1 PUSH1 0x1 PUSH1 0xA0 SHL SUB DUP6 DUP2 AND PUSH1 0x40 DUP6 ADD MSTORE DUP8 AND PUSH1 0x60 DUP5 ADD MSTORE PUSH1 0x44 CALLDATALOAD PUSH1 0x80 DUP5 ADD DUP2 SWAP1 MSTORE PUSH1 0xA0 DUP5 ADD DUP6 SWAP1 MSTORE PUSH1 0xC0 DUP5 ADD MSTORE PUSH1 0xE0 DUP4 ADD DUP5 SWAP1 MSTORE PUSH1 0x1 PUSH2 0x100 DUP5 ADD MSTORE PUSH1 0x84 CALLDATALOAD PUSH2 0x120 DUP5 ADD MSTORE PUSH2 0x94A PUSH1 0xA4 CALLDATALOAD PUSH2 0x140 DUP6 ADD PUSH2 0xDFE JUMP JUMPDEST PUSH1 0x1 DUP1 PUSH1 0xA0 SHL SUB AND PUSH2 0x160 DUP4 ADD MSTORE PUSH1 0x1 DUP1 PUSH1 0xA0 SHL SUB AND PUSH2 0x180 DUP3 ADD MSTORE DUP4 PUSH1 0x0 MSTORE PUSH1 0x2 PUSH1 0x20 MSTORE PUSH1 0x40 PUSH1 0x0 KECCAK256 DUP2 MLOAD DUP2 SSTORE PUSH1 0x1 DUP1 PUSH1 0xA0 SHL SUB PUSH1 0x20 DUP4 ADD MLOAD AND PUSH1 0x1 PUSH1 0x1 PUSH1 0x60 SHL SUB PUSH1 0xA0 SHL PUSH1 0x1 DUP4 ADD SLOAD AND OR PUSH1 0x1 DUP3 ADD SSTORE PUSH1 0x2 DUP2 ADD PUSH1 0x1 DUP1 PUSH1 0xA0 SHL SUB PUSH1 0x40 DUP5 ADD MLOAD AND PUSH1 0x1 PUSH1 0x1 PUSH1 0x60 SHL SUB PUSH1 0xA0 SHL DUP3 SLOAD AND OR SWAP1 SSTORE PUSH1 0x3 DUP2 ADD PUSH1 0x1 DUP1 PUSH1 0xA0 SHL SUB PUSH1 0x60 DUP5 ADD MLOAD AND PUSH1 0x1 PUSH1 0x1 PUSH1 0x60 SHL SUB PUSH1 0xA0 SHL DUP3 SLOAD AND OR SWAP1 SSTORE PUSH1 0x80 DUP3 ADD MLOAD PUSH1 0x4 DUP3 ADD SSTORE PUSH1 0xA0 DUP3 ADD MLOAD PUSH1 0x5 DUP3 ADD SSTORE PUSH1 0xC0 DUP3 ADD MLOAD PUSH1 0x6 DUP3 ADD SSTORE PUSH1 0xE0 DUP3 ADD MLOAD PUSH1 0x7 DUP3 ADD SSTORE PUSH1 0x8 DUP2 ADD PUSH2 0x100 DUP4 ADD MLOAD ISZERO ISZERO PUSH1 0xFF DUP1 NOT DUP4 SLOAD AND SWAP2 AND OR SWAP1 SSTORE PUSH2 0x120 DUP3 ADD MLOAD PUSH1 0x9 DUP3 ADD SSTORE PUSH1 0xA DUP2 ADD SWAP1 PUSH2 0x140 DUP4 ADD MLOAD SWAP2 PUSH1 0x2 DUP4 LT ISZERO PUSH2 0xB64 JUMPI PUSH1 0xB SWAP3 DUP2 SLOAD PUSH1 0xFF PUSH2 0x100 PUSH1 0x1 PUSH1 0xA8 SHL SUB PUSH2 0x160 DUP9 ADD MLOAD PUSH1 0x8 SHL AND SWAP3 AND SWAP1 PUSH11 0xFFFFFFFFFFFFFFFFFFFFFF PUSH1 0xA8 SHL AND OR OR SWAP1 SSTORE ADD SWAP1 PUSH2 0x180 PUSH1 0x1 DUP1 PUSH1 0xA0 SHL SUB SWAP2 ADD MLOAD AND PUSH1 0x1 PUSH1 0x1 PUSH1 0x60 SHL SUB PUSH1 0xA0 SHL DUP3 SLOAD AND OR SWAP1 SSTORE CALLER PUSH1 0x0 MSTORE PUSH1 0x3 PUSH1 0x20 MSTORE PUSH1 0x40 PUSH1 0x0 KECCAK256 SWAP4 DUP5 SLOAD SWAP5 PUSH9 0x10000000000000000 DUP7 LT ISZERO PUSH2 0xB4E JUMPI DUP6 PUSH2 0xAC7 SWAP2 PUSH1 0x1 PUSH1 0x20 SWAP9 ADD DUP2 SSTORE PUSH2 0xC83 JUMP JUMPDEST DUP2 SLOAD SWAP1 PUSH1 0x3 SHL SWAP1 DUP7 DUP3 SHL SWAP2 PUSH1 0x0 NOT SWAP1 SHL NOT AND OR SWAP1 SSTORE PUSH1 0x40 MLOAD SWAP3 PUSH1 0x1 DUP1 PUSH1 0xA0 SHL SUB AND DUP4 MSTORE PUSH1 0x1 DUP1 PUSH1 0xA0 SHL SUB AND DUP5 DUP4 ADD MSTORE PUSH1 0x44 CALLDATALOAD PUSH1 0x40 DUP4 ADD MSTORE PUSH1 0x60 DUP3 ADD MSTORE PUSH1 0x84 CALLDATALOAD PUSH1 0x80 DUP3 ADD MSTORE PUSH2 0xB1A PUSH1 0xA0 DUP3 ADD PUSH1 0xA4 CALLDATALOAD PUSH2 0xCB1 JUMP JUMPDEST DUP2 PUSH32 0xB36530D02C8C6048882AF404A5B4D167D843C99FF9207356CBA577ABA77C49DD PUSH1 0xC0 CALLER SWAP4 LOG3 PUSH1 0x1 PUSH1 0x0 SSTORE PUSH1 0x40 MLOAD SWAP1 DUP2 MSTORE RETURN JUMPDEST PUSH4 0x4E487B71 PUSH1 0xE0 SHL PUSH1 0x0 MSTORE PUSH1 0x41 PUSH1 0x4 MSTORE PUSH1 0x24 PUSH1 0x0 REVERT JUMPDEST PUSH4 0x4E487B71 PUSH1 0xE0 SHL PUSH1 0x0 MSTORE PUSH1 0x21 PUSH1 0x4 MSTORE PUSH1 0x24 PUSH1 0x0 REVERT JUMPDEST PUSH4 0x4E487B71 PUSH1 0xE0 SHL PUSH1 0x0 MSTORE PUSH1 0x11 PUSH1 0x4 MSTORE PUSH1 0x24 PUSH1 0x0 REVERT JUMPDEST POP PUSH2 0xBAA PUSH1 0x44 CALLDATALOAD PUSH1 0x1 PUSH1 0x1 PUSH1 0xA0 SHL SUB DUP6 DUP2 AND SWAP1 DUP5 AND PUSH2 0xCF1 JUMP JUMPDEST SWAP1 PUSH2 0x8CB JUMP JUMPDEST PUSH1 0x40 MLOAD PUSH3 0x461BCD PUSH1 0xE5 SHL DUP2 MSTORE PUSH1 0x20 PUSH1 0x4 DUP3 ADD MSTORE PUSH1 0x21 PUSH1 0x24 DUP3 ADD MSTORE PUSH32 0x416D6F756E7473206D7573742062652067726561746572207468616E207A6572 PUSH1 0x44 DUP3 ADD MSTORE PUSH1 0x6F PUSH1 0xF8 SHL PUSH1 0x64 DUP3 ADD MSTORE PUSH1 0x84 SWAP1 REVERT JUMPDEST POP DUP1 ISZERO ISZERO PUSH2 0x8A6 JUMP JUMPDEST PUSH1 0x40 MLOAD PUSH3 0x461BCD PUSH1 0xE5 SHL DUP2 MSTORE PUSH1 0x20 PUSH1 0x4 DUP3 ADD MSTORE PUSH1 0x15 PUSH1 0x24 DUP3 ADD MSTORE PUSH21 0x496E76616C696420746F6B656E2061646472657373 PUSH1 0x58 SHL PUSH1 0x44 DUP3 ADD MSTORE PUSH1 0x64 SWAP1 REVERT JUMPDEST POP PUSH1 0x1 PUSH1 0x1 PUSH1 0xA0 SHL SUB DUP6 AND ISZERO ISZERO PUSH2 0x896 JUMP JUMPDEST PUSH1 0x4 CALLDATALOAD SWAP1 PUSH1 0x1 PUSH1 0x1 PUSH1 0xA0 SHL SUB DUP3 AND DUP3 SUB PUSH2 0x290 JUMPI JUMP JUMPDEST PUSH1 0x24 CALLDATALOAD SWAP1 PUSH1 0x1 PUSH1 0x1 PUSH1 0xA0 SHL SUB DUP3 AND DUP3 SUB PUSH2 0x290 JUMPI JUMP JUMPDEST DUP1 SLOAD DUP3 LT ISZERO PUSH2 0xC9B JUMPI PUSH1 0x0 MSTORE PUSH1 0x20 PUSH1 0x0 KECCAK256 ADD SWAP1 PUSH1 0x0 SWAP1 JUMP JUMPDEST PUSH4 0x4E487B71 PUSH1 0xE0 SHL PUSH1 0x0 MSTORE PUSH1 0x32 PUSH1 0x4 MSTORE PUSH1 0x24 PUSH1 0x0 REVERT JUMPDEST SWAP1 PUSH1 0x2 DUP3 LT ISZERO PUSH2 0xB64 JUMPI MSTORE JUMP JUMPDEST DUP2 DUP2 MUL SWAP3 SWAP2 DUP2 ISZERO SWAP2 DUP5 DIV EQ OR ISZERO PUSH2 0xB7A JUMPI JUMP JUMPDEST DUP2 ISZERO PUSH2 0xCDB JUMPI DIV SWAP1 JUMP JUMPDEST PUSH4 0x4E487B71 PUSH1 0xE0 SHL PUSH1 0x0 MSTORE PUSH1 0x12 PUSH1 0x4 MSTORE PUSH1 0x24 PUSH1 0x0 REVERT JUMPDEST PUSH2 0xD00 PUSH2 0xD06 SWAP2 SWAP4 SWAP3 SWAP4 PUSH2 0xE9F JUMP JUMPDEST SWAP3 PUSH2 0xE9F JUMP JUMPDEST SWAP1 PUSH1 0x0 DUP4 SGT DUP1 PUSH2 0xD65 JUMPI JUMPDEST ISZERO PUSH2 0xD2B JUMPI PUSH2 0xD28 SWAP3 PUSH2 0xD23 SWAP2 PUSH2 0xCBE JUMP JUMPDEST PUSH2 0xCD1 JUMP JUMPDEST SWAP1 JUMP JUMPDEST PUSH1 0x40 MLOAD PUSH3 0x461BCD PUSH1 0xE5 SHL DUP2 MSTORE PUSH1 0x20 PUSH1 0x4 DUP3 ADD MSTORE PUSH1 0x12 PUSH1 0x24 DUP3 ADD MSTORE PUSH18 0x496E76616C69642070726963652064617461 PUSH1 0x70 SHL PUSH1 0x44 DUP3 ADD MSTORE PUSH1 0x64 SWAP1 REVERT JUMPDEST POP PUSH1 0x0 DUP3 SGT PUSH2 0xD11 JUMP JUMPDEST ISZERO PUSH2 0xD76 JUMPI JUMP JUMPDEST PUSH1 0x40 MLOAD PUSH3 0x461BCD PUSH1 0xE5 SHL DUP2 MSTORE PUSH1 0x20 PUSH1 0x4 DUP3 ADD MSTORE PUSH1 0x14 PUSH1 0x24 DUP3 ADD MSTORE PUSH20 0x13DC99195C88191BD95CC81B9BDD08195E1A5CDD PUSH1 0x62 SHL PUSH1 0x44 DUP3 ADD MSTORE PUSH1 0x64 SWAP1 REVERT JUMPDEST PUSH2 0x1A0 DUP2 ADD SWAP1 DUP2 LT PUSH8 0xFFFFFFFFFFFFFFFF DUP3 GT OR PUSH2 0xB4E JUMPI PUSH1 0x40 MSTORE JUMP JUMPDEST SWAP1 PUSH1 0x1F DUP1 NOT SWAP2 ADD AND DUP2 ADD SWAP1 DUP2 LT PUSH8 0xFFFFFFFFFFFFFFFF DUP3 GT OR PUSH2 0xB4E JUMPI PUSH1 0x40 MSTORE JUMP JUMPDEST SWAP2 SWAP1 DUP3 SUB SWAP2 DUP3 GT PUSH2 0xB7A JUMPI JUMP JUMPDEST PUSH1 0x2 DUP3 LT ISZERO PUSH2 0xB64 JUMPI MSTORE JUMP JUMPDEST PUSH1 0x2 PUSH1 0x0 SLOAD EQ PUSH2 0xE1B JUMPI PUSH1 0x2 PUSH1 0x0 SSTORE JUMP JUMPDEST PUSH1 0x40 MLOAD PUSH4 0x3EE5AEB5 PUSH1 0xE0 SHL DUP2 MSTORE PUSH1 0x4 SWAP1 REVERT JUMPDEST PUSH1 0x40 MLOAD PUSH4 0x23B872DD PUSH1 0xE0 SHL PUSH1 0x20 DUP3 ADD MSTORE PUSH1 0x1 PUSH1 0x1 PUSH1 0xA0 SHL SUB SWAP3 DUP4 AND PUSH1 0x24 DUP3 ADD MSTORE SWAP3 SWAP1 SWAP2 AND PUSH1 0x44 DUP4 ADD MSTORE PUSH1 0x64 DUP1 DUP4 ADD SWAP4 SWAP1 SWAP4 MSTORE SWAP2 DUP2 MSTORE PUSH1 0xA0 DUP2 ADD SWAP2 DUP2 DUP4 LT PUSH8 0xFFFFFFFFFFFFFFFF DUP5 GT OR PUSH2 0xB4E JUMPI PUSH2 0xE86 SWAP3 PUSH1 0x40 MSTORE PUSH2 0xF76 JUMP JUMPDEST JUMP JUMPDEST MLOAD SWAP1 PUSH10 0xFFFFFFFFFFFFFFFFFFFF DUP3 AND DUP3 SUB PUSH2 0x290 JUMPI JUMP JUMPDEST PUSH1 0x40 MLOAD PUSH4 0x3FABE5A3 PUSH1 0xE2 SHL DUP2 MSTORE SWAP1 PUSH1 0xA0 SWAP1 DUP3 SWAP1 PUSH1 0x4 SWAP1 DUP3 SWAP1 PUSH1 0x1 PUSH1 0x1 PUSH1 0xA0 SHL SUB AND GAS STATICCALL SWAP1 DUP2 ISZERO PUSH2 0xF1E JUMPI PUSH1 0x0 SWAP2 PUSH2 0xED4 JUMPI POP SWAP1 JUMP JUMPDEST SWAP1 POP PUSH1 0xA0 DUP2 RETURNDATASIZE PUSH1 0xA0 GT PUSH2 0xF16 JUMPI JUMPDEST DUP2 PUSH2 0xEEF PUSH1 0xA0 SWAP4 DUP4 PUSH2 0xDCF JUMP JUMPDEST DUP2 ADD SUB SLT PUSH2 0x290 JUMPI PUSH2 0xF00 DUP2 PUSH2 0xE88 JUMP JUMPDEST POP PUSH2 0xF12 PUSH1 0x80 PUSH1 0x20 DUP4 ADD MLOAD SWAP3 ADD PUSH2 0xE88 JUMP JUMPDEST POP SWAP1 JUMP JUMPDEST RETURNDATASIZE SWAP2 POP PUSH2 0xEE2 JUMP JUMPDEST PUSH1 0x40 MLOAD RETURNDATASIZE PUSH1 0x0 DUP3 RETURNDATACOPY RETURNDATASIZE SWAP1 REVERT JUMPDEST PUSH1 0x40 MLOAD PUSH4 0xA9059CBB PUSH1 0xE0 SHL PUSH1 0x20 DUP3 ADD MSTORE PUSH1 0x1 PUSH1 0x1 PUSH1 0xA0 SHL SUB SWAP1 SWAP3 AND PUSH1 0x24 DUP4 ADD MSTORE PUSH1 0x44 DUP1 DUP4 ADD SWAP4 SWAP1 SWAP4 MSTORE SWAP2 DUP2 MSTORE PUSH1 0x80 DUP2 ADD SWAP2 PUSH8 0xFFFFFFFFFFFFFFFF DUP4 GT DUP3 DUP5 LT OR PUSH2 0xB4E JUMPI PUSH2 0xE86 SWAP3 PUSH1 0x40 MSTORE JUMPDEST PUSH1 0x1 DUP1 PUSH1 0xA0 SHL SUB AND SWAP1 PUSH1 0x0 DUP1 DUP3 PUSH1 0x20 DUP3 SWAP5 MLOAD SWAP2 ADD DUP3 DUP7 GAS CALL RETURNDATASIZE ISZERO PUSH2 0x1045 JUMPI RETURNDATASIZE SWAP1 PUSH8 0xFFFFFFFFFFFFFFFF DUP3 GT PUSH2 0x1031 JUMPI SWAP1 PUSH2 0xFD2 SWAP2 PUSH1 0x40 MLOAD SWAP2 PUSH2 0xFC2 PUSH1 0x20 PUSH1 0x1F NOT PUSH1 0x1F DUP5 ADD AND ADD DUP5 PUSH2 0xDCF JUMP JUMPDEST DUP3 MSTORE RETURNDATASIZE DUP5 PUSH1 0x20 DUP5 ADD RETURNDATACOPY JUMPDEST DUP5 PUSH2 0x1051 JUMP JUMPDEST SWAP1 DUP2 MLOAD SWAP2 DUP3 ISZERO ISZERO SWAP3 DUP4 PUSH2 0x1002 JUMPI JUMPDEST POP POP POP PUSH2 0xFEA JUMPI POP JUMP JUMPDEST PUSH1 0x24 SWAP1 PUSH1 0x40 MLOAD SWAP1 PUSH4 0x5274AFE7 PUSH1 0xE0 SHL DUP3 MSTORE PUSH1 0x4 DUP3 ADD MSTORE REVERT JUMPDEST DUP2 SWAP3 SWAP4 POP SWAP1 PUSH1 0x20 SWAP2 DUP2 ADD SUB SLT PUSH2 0x102D JUMPI PUSH1 0x20 ADD MLOAD SWAP1 DUP2 ISZERO SWAP2 DUP3 ISZERO SUB PUSH2 0x102A JUMPI POP CODESIZE DUP1 DUP1 PUSH2 0xFE0 JUMP JUMPDEST DUP1 REVERT JUMPDEST POP DUP1 REVERT JUMPDEST PUSH4 0x4E487B71 PUSH1 0xE0 SHL DUP4 MSTORE PUSH1 0x41 PUSH1 0x4 MSTORE PUSH1 0x24 DUP4 REVERT JUMPDEST PUSH2 0xFD2 SWAP1 PUSH1 0x60 SWAP1 PUSH2 0xFCC JUMP JUMPDEST SWAP1 PUSH2 0x1078 JUMPI POP DUP1 MLOAD ISZERO PUSH2 0x1066 JUMPI DUP1 MLOAD SWAP1 PUSH1 0x20 ADD REVERT JUMPDEST PUSH1 0x40 MLOAD PUSH4 0xA12F521 PUSH1 0xE1 SHL DUP2 MSTORE PUSH1 0x4 SWAP1 REVERT JUMPDEST DUP2 MLOAD ISZERO DUP1 PUSH2 0x10AB JUMPI JUMPDEST PUSH2 0x1089 JUMPI POP SWAP1 JUMP JUMPDEST PUSH1 0x40 MLOAD PUSH4 0x9996B315 PUSH1 0xE0 SHL DUP2 MSTORE PUSH1 0x1 PUSH1 0x1 PUSH1 0xA0 SHL SUB SWAP1 SWAP2 AND PUSH1 0x4 DUP3 ADD MSTORE PUSH1 0x24 SWAP1 REVERT JUMPDEST POP DUP1 EXTCODESIZE ISZERO PUSH2 0x1081 JUMP INVALID LOG2 PUSH5 0x6970667358 0x22 SLT KECCAK256 0xB5 MSTORE 0xEF SWAP5 DUP13 0xB6 BLOBBASEFEE 0xE0 PUSH25 0xBC1BC1D6C78775161543E7DFDFBBE90BDA72521B6C450E6473 PUSH16 0x6C634300081800330000000000000000 "
        },
        "methodIdentifiers": {
          "calculateFairAmount(address,address,uint256)": "30dbce66",
          "cancelOrder(uint256)": "514fcac7",
          "createOrder(address,address,uint256,uint256,uint256,uint8,address,address)": "23d07835",
          "fillOrder(uint256,uint256)": "c37dfc5b",
          "getOrderDetails(uint256)": "ec7dd7bb",
          "getUserOrders(address)": "63c69f08",
          "nextOrderId()": "2a58b330",
          "orders(uint256)": "a85c38ef",
          "userOrders(address,uint256)": "856652e9"
        }
      }
    }
  }
}